:020000040000FA
:020000002E28A8
:040002000034003492
:080008000B118B13A40003305F
:10001000A5001130A9008519172805191D28851874
:100020002328850120086A20860085152828850157
:1000300021086A20860005152828850122086A20E3
:10004000860085142828850123086A208600051467
:10005000C6308100250883002408090007309F006E
:10006000C6308100831601308600F0308500811291
:1000700081110114811401158B178B1683128501D0
:100080008601A001A101A201A301051B6120051B9E
:10009000A90B5920A10A2108113A0319A101851BB6
:1000A0006120851BA1032108113A0319A101A803AE
:1000B0004528A90B5920A20A2208113A0319A201C6
:1000C0000800FF30A600FF30A700A70B6528A60B8D
:1000D0006328080082077F340D34B7349F34CD3451
:1000E000DB34FB340F34FF34CF34EF34F834733463
:0600F000BD34F334E334DB
:02400E00103F61
:00000001FF
